:020000001528C1
:100008007E14803120007F08FB002100111C10287D
:100018002000111C1028E6207B082000FF007E101D
:1000280009001628B021D100203084000030850056
:100038001B3098217E1020004E292000C300210883
:10004800BB00BC012008BD00BE01BD35BE0DBD35DD
:10005800BE0DBD35BE0D3B083D07BF003C083E3D0B
:10006800C0002308BB00BC012208BD00BE01BD358D
:10007800BE0DBD35BE0DBD35BE0D3B083D07C100EB
:100088003C083E3DC2003F08013EBB000030403DF9
:10009800BC0042083C06031D532841083B060319CF
:1000A800080043080139BB003B08C3004308031993
:1000B8006D280130BB00210A6228BB35890B6128F5
:1000C8003B08BC002008243E860087013C088104C8
:1000D8007D280130BB00210A7228BB35890B7128A5
:1000E8003B08FF3ABC002008243E860087013C08F4
:1000F80081050130BB003B08A10708302106031D1C
:100108000800A1010130BB003B08A00714302006FD
:10011800031D0800A0010800F80020002108F000D5
:10012800F1012008F200F301F235F30DF235F30D79
:10013800F235F30D70087207F4007108733DF5008D
:100148002308F000F1012208F200F301F235F30D63
:10015800F235F30DF235F30D70087207F6007108E9
:10016800733DF70077087506031DBC2876087406EA
:10017800031DC028003008002208243E860087019D
:100188000108F000230AC928F036890BC82870082E
:100198000139F10078088600870171088100013073
:1001A800F0007008A30708302306031DE428A30104
:1001B8000130F0007008A207143022060319A201CA
:1001C800013008000130F90079082000BA073A0820
:1001D8005106031D2A2938080319F9280C11323051
:1001E800F9007908D100B80129297A309020013A1C
:1001F800031D25297A080139F900F90DF90D2000A8
:100208000C087906FB3979068C000130F900790869
:10021800B90708303906031D17296430F900790831
:10022800D100B90122297A1C1E296430F900790805
:10023800D10029293230F9007908D100B801B80A6B
:10024800292920000C15D101D10ABA0111107D0805
:1002580097007C08960008002000CC01CD014D08CD
:10026800803ACB004A08803A4B02031D3D294908D1
:100278004C0203180800200047084C07840048086F
:100288004D3D85000008642101302000CC07003076
:10029800CD3D332904302000CE004E08D000A921DE
:1002A8008B170B17A4302000C7008130C8005008F6
:1002B800CE00CF014E08C9004F08CA003021562988
:1002C8002000C5004030C4004408C6004608031991
:1002D80008004508460503197329013074290030C0
:1002E80021202000463667294030200098009901D7
:1002F800C1309700803096001708FD001608FC00F2
:10030800111021001114AD21080022008C013B308E
:1003180021008C00133023008C0024008C01210064
:10032800951722009D010800640080010131890BA6
:10033800992900347A30210099009A01980108001F
:100348004334413450344E3400349E21892178217D
:0A035800080020001814080001340A
:020000040001F9
:04000E00E4FFFFDF2D
:00000001FF
